{
  "_format": "hh3-artifact-1",
  "contractName": "EventTest",
  "sourceName": "contracts/EventTest.sol",
  "abi": [
    {
      "inputs": [],
      "stateMutability": "nonpayable",
      "type": "constructor"
    },
    {
      "anonymous": false,
      "inputs": [
        {
          "indexed": true,
          "internalType": "address",
          "name": "_from",
          "type": "address"
        },
        {
          "indexed": true,
          "internalType": "address",
          "name": "_to",
          "type": "address"
        },
        {
          "indexed": false,
          "internalType": "uint256",
          "name": "_value",
          "type": "uint256"
        }
      ],
      "name": "Transfer",
      "type": "event"
    },
    {
      "inputs": [
        {
          "internalType": "address",
          "name": "",
          "type": "address"
        }
      ],
      "name": "_balances",
      "outputs": [
        {
          "internalType": "uint256",
          "name": "",
          "type": "uint256"
        }
      ],
      "stateMutability": "view",
      "type": "function"
    },
    {
      "inputs": [],
      "name": "owner",
      "outputs": [
        {
          "internalType": "address",
          "name": "",
          "type": "address"
        }
      ],
      "stateMutability": "view",
      "type": "function"
    },
    {
      "inputs": [
        {
          "internalType": "address",
          "name": "to",
          "type": "address"
        },
        {
          "internalType": "uint256",
          "name": "amount",
          "type": "uint256"
        }
      ],
      "name": "ownerTransfer",
      "outputs": [],
      "stateMutability": "nonpayable",
      "type": "function"
    }
  ],
  "bytecode": "0x6080604052348015600e575f5ffd5b50600180546001600160a01b031916339081179091555f90815260208190526040902061271090556103bc806100435f395ff3fe608060405234801561000f575f5ffd5b506004361061003f575f3560e01c80636ebcf607146100435780638da5cb5b14610075578063d85c8966146100a0575b5f5ffd5b6100626100513660046102fe565b5f6020819052908152604090205481565b6040519081526020015b60405180910390f35b600154610088906001600160a01b031681565b6040516001600160a01b03909116815260200161006c565b6100b36100ae36600461031e565b6100b5565b005b6001546001600160a01b0316331461011e5760405162461bcd60e51b815260206004820152602160248201527f4f6e6c79206f776e65722063616e2063616c6c20746869732066756e6374696f6044820152603760f91b60648201526084015b60405180910390fd5b61012933838361012d565b5050565b6001600160a01b0383166101835760405162461bcd60e51b815260206004820152601a60248201527f5472616e736665722066726f6d207a65726f20616464726573730000000000006044820152606401610115565b6001600160a01b0382166101d95760405162461bcd60e51b815260206004820152601860248201527f5472616e7366657220746f207a65726f206164647265737300000000000000006044820152606401610115565b6001600160a01b0383165f908152602081905260409020548111156102375760405162461bcd60e51b8152602060048201526014602482015273496e73756666696369656e742062616c616e636560601b6044820152606401610115565b6001600160a01b0383165f908152602081905260408120805483929061025e90849061035a565b90915550506001600160a01b0382165f908152602081905260408120805483929061028a908490610373565b92505081905550816001600160a01b0316836001600160a01b03167fddf252ad1be2c89b69c2b068fc378daa952ba7f163c4a11628f55a4df523b3ef836040516102d691815260200190565b60405180910390a3505050565b80356001600160a01b03811681146102f9575f5ffd5b919050565b5f6020828403121561030e575f5ffd5b610317826102e3565b9392505050565b5f5f6040838503121561032f575f5ffd5b610338836102e3565b946020939093013593505050565b634e487b7160e01b5f52601160045260245ffd5b8181038181111561036d5761036d610346565b92915050565b8082018082111561036d5761036d61034656fea26469706673582212206fddbcecf53630001192f03377eaa38233385ee2089b30db15396455b2fdba0864736f6c634300081c0033",
  "linkReferences": {},
  "deployedLinkReferences": {},
  "immutableReferences": {},
  "inputSourceName": "project/contracts/EventTest.sol",
  "buildInfoId": "solc-0_8_28-e0d6808ffcb2477574eaaf017444e5b7236bcf1e"
}