{
	"_format": "hh3-artifact-1",
	"contractName": "Events",
	"sourceName": "contracts/Events.sol",
	"abi": [
		{
			"anonymous": false,
			"inputs": [
				{
					"indexed": true,
					"internalType": "address",
					"name": "_from",
					"type": "address"
				},
				{
					"indexed": true,
					"internalType": "address",
					"name": "_to",
					"type": "address"
				},
				{
					"indexed": false,
					"internalType": "uint256",
					"name": "_value",
					"type": "uint256"
				}
			],
			"name": "Transfer",
			"type": "event"
		},
		{
			"inputs": [
				{
					"internalType": "address",
					"name": "",
					"type": "address"
				}
			],
			"name": "_balances",
			"outputs": [
				{
					"internalType": "uint256",
					"name": "",
					"type": "uint256"
				}
			],
			"stateMutability": "view",
			"type": "function"
		},
		{
			"inputs": [
				{
					"internalType": "address",
					"name": "from",
					"type": "address"
				},
				{
					"internalType": "address",
					"name": "to",
					"type": "address"
				},
				{
					"internalType": "uint256",
					"name": "amount",
					"type": "uint256"
				}
			],
			"name": "_transfer",
			"outputs": [],
			"stateMutability": "nonpayable",
			"type": "function"
		}
	],
	"bytecode": "0x6080604052348015600e575f5ffd5b506102148061001c5f395ff3fe608060405234801561000f575f5ffd5b5060043610610034575f3560e01c806330e0789e146100385780636ebcf6071461004d575b5f5ffd5b61004b610046366004610145565b61007e565b005b61006c61005b36600461017e565b5f6020819052908152604090205481565b60405190815260200160405180910390f35b6001600160a01b0383165f90815260208190526040812080548392906100a59084906101b2565b90915550506001600160a01b0382165f90815260208190526040812080548392906100d19084906101cb565b92505081905550816001600160a01b0316836001600160a01b03167fddf252ad1be2c89b69c2b068fc378daa952ba7f163c4a11628f55a4df523b3ef8360405161011d91815260200190565b60405180910390a3505050565b80356001600160a01b0381168114610140575f5ffd5b919050565b5f5f5f60608486031215610157575f5ffd5b6101608461012a565b925061016e6020850161012a565b9150604084013590509250925092565b5f6020828403121561018e575f5ffd5b6101978261012a565b9392505050565b634e487b7160e01b5f52601160045260245ffd5b818103818111156101c5576101c561019e565b92915050565b808201808211156101c5576101c561019e56fea26469706673582212202a047017bb35731519f76cbf6eaad4cd0f0eef2d99601a7254e14bb17134191a64736f6c634300081c0033",
	"linkReferences": {},
	"deployedLinkReferences": {},
	"immutableReferences": {},
	"inputSourceName": "project/contracts/Events.sol",
	"buildInfoId": "solc-0_8_28-91fb78cd6a2a6e2bcb23f0e8eaaca14ac8940100"
}