{
  "_format": "hh3-artifact-1",
  "contractName": "Events",
  "sourceName": "contracts/Events.sol",
  "abi": [
    {
      "anonymous": false,
      "inputs": [
        {
          "indexed": true,
          "internalType": "address",
          "name": "_from",
          "type": "address"
        },
        {
          "indexed": true,
          "internalType": "address",
          "name": "_to",
          "type": "address"
        },
        {
          "indexed": false,
          "internalType": "uint256",
          "name": "_value",
          "type": "uint256"
        }
      ],
      "name": "Transfer",
      "type": "event"
    },
    {
      "inputs": [
        {
          "internalType": "address",
          "name": "",
          "type": "address"
        }
      ],
      "name": "_balances",
      "outputs": [
        {
          "internalType": "uint256",
          "name": "",
          "type": "uint256"
        }
      ],
      "stateMutability": "view",
      "type": "function"
    },
    {
      "inputs": [
        {
          "internalType": "address",
          "name": "from",
          "type": "address"
        },
        {
          "internalType": "address",
          "name": "to",
          "type": "address"
        },
        {
          "internalType": "uint256",
          "name": "amount",
          "type": "uint256"
        }
      ],
      "name": "_transfer",
      "outputs": [],
      "stateMutability": "nonpayable",
      "type": "function"
    }
  ],
  "bytecode": "0x6080604052348015600e575f5ffd5b506102198061001c5f395ff3fe608060405234801561000f575f5ffd5b5060043610610034575f3560e01c806330e0789e146100385780636ebcf6071461004d575b5f5ffd5b61004b61004636600461014a565b61007e565b005b61006c61005b366004610183565b5f6020819052908152604090205481565b60405190815260200160405180910390f35b6001600160a01b0383165f908152602081905260408120620f42408082558392906100aa9084906101b7565b90915550506001600160a01b0382165f90815260208190526040812080548392906100d69084906101d0565b92505081905550816001600160a01b0316836001600160a01b03167fddf252ad1be2c89b69c2b068fc378daa952ba7f163c4a11628f55a4df523b3ef8360405161012291815260200190565b60405180910390a3505050565b80356001600160a01b0381168114610145575f5ffd5b919050565b5f5f5f6060848603121561015c575f5ffd5b6101658461012f565b92506101736020850161012f565b9150604084013590509250925092565b5f60208284031215610193575f5ffd5b61019c8261012f565b9392505050565b634e487b7160e01b5f52601160045260245ffd5b818103818111156101ca576101ca6101a3565b92915050565b808201808211156101ca576101ca6101a356fea2646970667358221220b499624883b15b81d910cf94a9c35b1d405d434acd05d02c576e37181f0edcbb64736f6c634300081c0033",
  "linkReferences": {},
  "deployedLinkReferences": {},
  "immutableReferences": {},
  "inputSourceName": "project/contracts/Events.sol",
  "buildInfoId": "solc-0_8_28-486867f7d01599381b18092a389539739607cb5a"
}